:100000000C9406030C942E030C942E030C942E03D4
:100010000C942E030C942E030C942E030C942E039C
:100020000C942E030C942E030C942E030C942E038C
:100030000C942E030C942E030C942E030C942E037C
:100040000C94EA050C942E030C942E030C942E03AE
:100050000C942E030C942E030C942E030C942E035C
:100060000C942E030C942E0305A84CCDB2D44EB99B
:100070003836A9020C50B9918688083CA6AAAA2A4B
:10008000BE000000803F00000000250028002B007B
:1000900000000000240027002A00460100FF08009D
:1000A000053E5B4F5B3E053E6B4F6B3E051C3E7C49
:1000B0003E1C05183C7E3C18051C577D571C051C32
:1000C0005E7F5E1C0400183C1805FFE7C3E7FF04D1
:1000D0000018241805FFE7DBE7FF0530483A060E55
:1000E00005262979292605407F05050705407F0556
:1000F000253F055A3CE73C5A057F3E1C1C08050875
:100100001C1C3E7F0514227F221405FFFFFFFFFF0A
:1001100005F0F0F0F0F003FFFFFF05000000FFFF27
:10012000050F0F0F0F0F0508047E04080510207E31
:1001300020100508082A1C0805081C2A080805AA1A
:10014000005500AA05AA55AA55AA0530383E3830F0
:1001500005060E3E0E06020000015F0307000705BC
:10016000147F147F1405444AFF4A32056313086460
:10017000630536494936480107033E414103414181
:100180003E05082A1C2A080508083E08080260E007
:100190000408080808026060056010080403053EB2
:1001A0005149453E03427F40057149494946054151
:1001B00049494936050F0808087F054F4949493123
:1001C000053E4949493005030101017F053649498A
:1001D000493605064949493E026C6C026CEC03083D
:1001E00014220414141414032214080501590909D3
:1001F00006053E415D594E057E0909097E057F4988
:10020000494936053E41414141057F4141413E0555
:100210007F49494941057F09090901053E41414995
:1002200079057F0808087F03417F4105304141413E
:100230003F057F08142241057F40404040057F0272
:100240000C027F057F0408107F053E4141413E05B9
:100250007F09090906053E4141617E057F0919298B
:10026000460546494949310501017F0101053F40E5
:1002700040403F051F2040201F053F4038403F05BC
:1002800063140814630503047804030561514945A8
:1002900043037F41410503040810600341417F058A
:1002A00004020102040480808080030102040438F7
:1002B00044447C047F44443804384444440438446F
:1002C000447F043854545804047E05010418A4A43F
:1002D0007C047F040478017D0384857C047F1028DE
:1002E00044017F057C04780478047C040478043895
:1002F00044443804FC24241804182424FC047C04FA
:100300000408045854543403047F04043C40407CE3
:10031000041C20407C053C4030403C046C10106CB8
:10032000041CA0A07C046454544C040836414101D0
:100330007F04414136080402010201057F41414129
:100340007F053E55555541053844443844057C2ABF
:100350002A3E14057E0202060605027E027E020582
:100360006355494163053844443C0405407E201EE2
:10037000200506027E0202086313086463006060C1
:10038000052A2A2A2A2A03514A4403444A510500CD
:1003900000FF010303E080FF053612362436030216
:1003A0000502021818021010053040FF0101041F59
:1003B00001011E000000000901017F017F020C0203
:1003C0007F0000000000000100017D0418247E244D
:1003D00004447E454105221C141C2205012A7C2A66
:1003E000010177044E55553903020002077E81BD95
:1003F000A5A5817E0326292F0508142A14220408A6
:1004000008081803080808077E81BD95A9817E05A4
:1004100001010101010302050203242E2403191521
:10042000120315150A02020104F820407805060996
:100430007F017F021818040080A0C003121F100360
:100440002629260522142A140808402F1008041E05
:10045000117C08402F10080462554C0915553F10B7
:1004600008041E117C053048484D400578151614C7
:1004700078057814161578057A1514157A05781606
:10048000151679057815141578057814151478075C
:100490007E09097F494941059EA1612121057C54BE
:1004A000554644057C54564544057E5554454605FD
:1004B0007C5554454403457E4403447E4503467DB4
:1004C0004603457C4505087F49413E057C0A1122CB
:1004D0007D053844454638053844464538053A4593
:1004E00044453A05384645463905384544453805BA
:1004F0002214081422057C625A463E053C404142C3
:100500003C053C4042413C053C4241423C053C41AB
:1005100040413C0502047A0502043F12120C057E9C
:1005200049494E30043845467C043844467D0438F9
:1005300046457E043A45467D043845447D04304AAC
:100540004D7A0720545438545458049CA262220413
:10055000385556580438545659043856555A0438A4
:1005600055545902017A027A010302790203027892
:100570000204304B4B3C047A090A710430494A307A
:100580000430484A3104304A49320432494A31047D
:10059000394444390508082A08080438544C3804FA
:1005A000384142780438404279043842417A043A6A
:1005B00040407A0418A0A27904FC282810041AA04C
:1005C000A07A00000000230026002900040404048F
:1005D00004040404020202020202030303030303ED
:1005E00001020408102040800102040810200102CA
:1005F00004081020000000080002010000030407A6
:100600000000000000000000B20DC50D11241FBE47
:10061000CFEFD8E0DEBFCDBF11E0A0E0B1E0E0ED6C
:10062000F4E202C005900D92A831B107D9F723E09A
:10063000A8E1B1E001C01D92AD3AB207E1F713E0C5
:10064000C5E0D3E004C02197FE010E942911C43007
:10065000D107C9F70E9434060C945B120C94000079
:10066000833081F028F4813099F08230A9F0089528
:100670008730A9F08830C9F08430B1F480918000CF
:100680008F7D03C0809180008F77809380000895D4
:1006900084B58F7784BD089584B58F7DFBCF80911D
:1006A000B0008F778093B00008958091B0008F7D67
:1006B000F9CFCF93DF93EAEFF5E08491E6EEF5E032
:1006C000D491E2EDF5E0C491CC23A1F081110E9418
:1006D0003003EC2FF0E0EE0FFF1FEE53FA4FA59121
:1006E000B491EC91ED2381E090E009F480E0DF919A
:1006F000CF91089580E090E0FACF1F93CF93DF93DE
:10070000282F30E0F901EC50FA4F8491F901E052C2
:10071000FA4FD491F901E453FA4FC491CC23A9F0D4
:10072000162F81110E943003EC2FF0E0EE0FFF1F17
:10073000EA57FF4FA591B4918FB7F894EC9111113E
:1007400008C0D095DE23DC938FBFDF91CF911F913E
:100750000895DE2BF8CFCF93DF9390E0FC01E052B9
:10076000FA4F249184539A4FFC0184918823D1F04D
:1007700090E0880F991FFC01E057FF4FA591B491BD
:10078000FC01EA57FF4FC591D49161110EC09FB78C
:10079000F8948C91E22FE0958E238C932881E223AC
:1007A000E8839FBFDF91CF9108958FB7F894EC91C4
:1007B000E22BEC938FBFF6CF3FB7F89480911901ED
:1007C00090911A01A0911B01B0911C0126B5A89B24
:1007D00005C02F3F19F00196A11DB11D3FBFBA2FD3
:1007E000A92F982F8827BC01CD01620F711D811D93
:1007F000911D42E0660F771F881F991F4A95D1F718
:100800000895ECE8F3E0418550E0440F551F70E097
:1008100060E0848595850C945412FF920F931F938A
:10082000CF93DF93809194038823A1F080918B0371
:10083000882361F08FB7F89490918B03913071F514
:100840009DB390938A039DB39DBB8FBF80E58CBD04
:1008500081E08DBD60E0809193030E947D038091D3
:1008600094038823F1F020E0422F50E0809195031B
:1008700090E0880F991F4817590708F03DC0E09194
:100880009803F0919903E40FF51F80818EBD00005D
:100890000DB407FEFDCF8EB52F5FE6CF80938A03A0
:1008A000D5CFC0E02C2F30E08091950390E0880FE9
:1008B000991F2817390700F5E0919803F0919903E3
:1008C000E20FF31F108100919203F0909103D8E0A2
:1008D000612F661F6627661F8F2D0E947D03110FF3
:1008E00061E0802F0E947D0360E0802F0E947D03E5
:1008F000D15071F7CF5FD6CF61E0809193030E9412
:100900007D0380919403882371F080918B03882369
:1009100051F09FB7F89420918B0380918A03213086
:1009200041F48DBB9FBFDF91CF911F910F91FF903D
:1009300008958FBFF8CFDF92EF92FF920F931F932E
:10094000CF93DF9399E0899F80011124F12CE12C52
:10095000C82FD0E0DD24D394DE0CE0919603F09113
:100960009703E00FF11F808590E00E2C02C0959553
:1009700087950A94E2F780FF2DC00E9401048091C0
:1009800095038150990B8C1B9D0B880F991F20910B
:10099000980330919903820F931FFC01D082E0915C
:1009A0009603F0919703E00FF11FEE0DFF1D4081BC
:1009B000209195032150330B2C1B3D0B220F331F2D
:1009C0008091980390919903280F391FF901418371
:1009D0000E940D04FFEFEF1AFF0A88E0E816F10409
:1009E00009F0B8CF8091960390919703080F191FD3
:1009F000F8011086DF91CF911F910F91FF90EF903A
:100A0000DF900895EF92FF920F931F93CF93DF93A0
:100A1000FF24F394D0E0C0E001E010E0B9E0EB2E59
:100A20000E94010498010C2E02C0220F331F0A9469
:100A3000E2F7E0E090E080919503E817E0F5EE9DA5
:100A4000B0011124A0919603B0919703A60FB71F90
:100A500018964C9150E042235323452B51F14E2FD1
:100A600050E08150990B841B950B880F991FA09122
:100A70009803B0919903A80FB91FFC92A091960317
:100A8000B0919703A60FB71FAC0FBD1F6C9180915B
:100A900095038150990B841B950B880F991F4091EA
:100AA000980350919903840F951FDC0111966C9364
:100AB00091E0EF5FC0CF91110E940D042196F39455
:100AC000C830D10509F0ACCF80E099E020919503C2
:100AD000821758F4E0919603F0919703899FE00DF7
:100AE000F11D112410868F5FF1CFDF91CF911F91FF
:100AF0000F91FF90EF900895FF920F931F93CF9364
:100B0000DF93EC018B01F0909503FA940E940104AD
:100B100060E0702F872F9AE0C230D10559F0A8F518
:100B20009BE0C130D10531F081E00115110509F0DC
:100B300080E09CE0462F50E0209195032150330B3C
:100B4000241B350B220F331FE0919803F09199037A
:100B5000E20FF31F9083209195032150330B241B48
:100B6000350B220F331F4091980350919903240FA6
:100B7000351FF90181836F5FF61660F6DF91CF9123
:100B80001F910F91FF900C940D04C330D10559F0C3
:100B9000C430D10549F681E00115110509F480E062
:100BA000819599E0C7CF81E00115110509F480E036
:100BB0009FE0C0CFCF93C82F81E090E00E94E80D66
:100BC000C81731F06C2F81E090E0CF910C94F00DBC
:100BD000CF9108951F920F920FB60F9211242F9369
:100BE0003F938F939F93AF93BF9380911E019091FA
:100BF0001F01A0912001B09121013091180123E043
:100C0000230F2D3758F50196A11DB11D2093180112
:100C100080931E0190931F01A0932001B0932101A6
:100C20008091190190911A01A0911B01B0911C01B2
:100C30000196A11DB11D8093190190931A01A093F3
:100C40001B01B0931C01BF91AF919F918F913F9178
:100C50002F910F900FBE0F901F90189526E8230F2D
:100C60000296A11DB11DD2CFCF93DF93CDB7DEB7D2
:100C7000AB970FB6F894DEBF0FBECDBF789484B5A6
:100C8000826084BD84B5816084BD85B5826085BD88
:100C900085B5816085BD80916E00816080936E0016
:100CA0001092810080918100826080938100809108
:100CB00081008160809381008091800081608093B9
:100CC00080008091B10084608093B1008091B00079
:100CD00081608093B00080917A00846080937A0074
:100CE00080917A00826080937A0080917A0081609E
:100CF00080937A0080917A00806880937A001092C5
:100D0000C10081E090E00E94E80D90E090932901FD
:100D10008093280185EE80937A0010927C0060E039
:100D200086E00E94AB0380919403882309F4B5C048
:100D30002FB72983F89480911D01811127C0E6ED1A
:100D4000F5E08491EAEEF5E09491E82FF0E0EE0F03
:100D5000FF1FE057FF4FA591B491EC91E92321F4D7
:100D600061E08AE00E947D0361E08AE00E94AB03BB
:100D70008CB580618CBD8CB580648CBD61E08DE0EC
:100D80000E94AB0361E08BE00E94AB0380911D01E8
:100D90008F5F80931D0139813FBF61E08091930394
:100DA0000E947D0361E0809193030E94AB03109247
:100DB0009B0310929A0310929D0310929C03409102
:100DC0009503498359E0459FC00111240E942F11CA
:100DD00090939703809396037981872F90E0880FF3
:100DE000991F0E942F1190939903809398038091EB
:100DF000A0039091A1038A59904009F45BC0EAE9ED
:100E0000F0E0F093A103E093A0031092A20388E026
:100E10008093A3031092A5038FEF8093A6031092F3
:100E2000A8031092A703E491E634E1F4EBE9F0E0C3
:100E3000E49182E090E0E13089F4ECE9F0E0E491C3
:100E4000E093A503EDE9F0E0E491E093A603EEE979
:100E5000F0E0E491E093A30385E090E09093A80391
:100E60008093A7034091A7035091A8038091A50305
:100E700090E06091A60370E020E068177907C0F069
:100E8000FA01E656FF4FE4912E1708F42E2FF0E0FA
:100E900031964E0F5F1F0196F0CF61E08091910374
:100EA0000E94AB0361E0809192030E94AB0375CF77
:100EB0002093A40370E060E083E090E00E947C0552
:100EC00067E070E081E090E00E947C0567E070E000
:100ED00082E090E00E947C0570E060E084E090E0B9
:100EE0000E947C0590919503915080E069E058E064
:100EF0004FEF869F90011124A0919603B091970324
:100F0000A20FB31FFD01752F11927A95E9F7E091B9
:100F10009603F0919703E20FF31F40878F5F9817B6
:100F200040F780919E0381110E94020570E060E00D
:100F300090E080E00E947C050E94DC034B015C0194
:100F4000A2E3CA2ED12CE12CF12C0E94DC036819FB
:100F500079098A099B09683E734081059105A8F3C8
:100F600081E0C81AD108E108F10898EE890E93E0F3
:100F7000991EA11CB11CC114D104E104F10429F78C
:100F8000EAE8F2E0FE8BED8B2AE831E03FA32EA3E6
:100F90003A832983FC87EB8715EF80917A0084FFE1
:100FA000FCCF10937A0060917800709179007250B4
:100FB00077FF02C0695F7F4FF3E075956795FA95FB
:100FC000E1F7072E000C880B990B0E945B0FAB8595
:100FD000BC856D937D938D939D93BC87AB87E98191
:100FE000FA811192119211921192FA83E9832AE8FF
:100FF00033E02A173B0789F68901EAE8EE2EE2E0A2
:10100000FE2E1A82198249815A81BA0190E080E04D
:101010000E94590F20E030E04CE752E40E94B10EEC
:101020002BED3FE049EC50E40E9426100E94AC0EEC
:101030002FE135E84BEE5EE30E9426109B01AC01E8
:1010400061E77DE38AE09FE30E943F0E4B015C0174
:10105000AC019B01D7016D917D918D919C910E9476
:101060002610F70161937193819391937F01A501FC
:101070009401D8019E918E917E916E918D010E9476
:101080002610F801608371838283938329813A81DA
:101090002F5F3F4F3A8329832032310509F0B3CFC8
:1010A000EAE8F2E050E040E090E080E01DC0481740
:1010B0005907C8F4DC01AA0FBB1FAA0FBB1FA65714
:1010C000BD4F0481158126813781CD90DD90ED9053
:1010D000FC901397C482D582E682F7820D931D930C
:1010E0002D933C931397349620E230E082179307B8
:1010F00028F0821B930B36952795F8CF820F931F0C
:101100004F5F5F4F4F33510591F61F8A188E198E2E
:101110001A8E412C512C90E8692E9FEB792E41E0DC
:1011200050E05A8349831D8E89819A81880F991FC7
:101130009DA38CA3A981BA8103E0AA0FBB1F0A95C6
:10114000E1F7B9A7A8A7E981FA81EE0FFF1FEE0F1B
:10115000FF1FFBA3EAA32AE831E03A8B298B4AE878
:1011600052E05C8B4B8B1B821C821D821E8210E026
:1011700000E050E85F837FE378871A8619868981CB
:101180009A81A985BA858A179B0709F403C1E98961
:10119000FA89FBA7EAA72B883C88BC8FAB8F2B8DE5
:1011A0003C8D2034310508F0A9C04AA15BA1420D55
:1011B000531D59A348A3DA018D909D90AD90BC902A
:1011C000EAA1FBA12AA53BA5E20FF31FFF8FEE8F3B
:1011D00080819181A281B3818D879E87AF87B88BF3
:1011E000212F302F4F815885C501B4010E94261050
:1011F0006B017C012B813C814D815E816D857E85FB
:101200008F8598890E9426109B01AC01C701B60109
:101210000E943F0E6B017C012D853E854F855889CC
:10122000612F702F8F8198850E9426106D877E8791
:101230008F87988B2B813C814D815E81C501B401E4
:101240000E9426109B01AC016D857E858F85988953
:101250000E94400E4B015C01A7019601F1016081E3
:101260007181828193810E943F0EA8A1B9A16D93E3
:101270007D938D939C931397A5019401EAA5FBA5FB
:1012800060817181828193810E943F0EAE8DBF8DFE
:101290006D937D938D939C931397A7019601F10114
:1012A00060817181828193810E94400ED1016D9392
:1012B0007D938D939C931397A5019401EAA5FBA5BB
:1012C00060817181828193810E94400EAAA5BBA595
:1012D0006D937D938D939C931397EB8DFC8D2CA137
:1012E0003DA1E20FF31FFC8FEB8F48A559A5240EFB
:1012F000351EA40FB51FBBA7AAA751CF212F302F92
:101300004F815885C301B2010E9426106B017C01F8
:101310002B813C814D815E816F89788D898D9A8D7D
:101320000E9426109B01AC01C701B6010E943F0E2E
:101330006B017C012B813C814D815E81C301B20137
:101340000E9426104B015C01212F302F4F815885C0
:101350006F89788D898D9A8D0E942610A501940140
:101360000E94400E6B837C838D839E8389859A8542
:1013700001969A878987AB89BC891496BC8BAB8B05
:10138000E989FA893496FA8BE98B1C2D0D2DEF82B1
:10139000F886F5CEA301920160E070E080E89FE35B
:1013A0000E943F0E20E030E040E05FE30E94261004
:1013B0000E9499109B01AC0150582F8B388F498F98
:1013C0005A8F20E030E040E85FE3C301B2010E94A1
:1013D000400E20E030E040E05FE30E9426100E94D3
:1013E00099102B013C013D8D3F5F3D8F4CA15DA1CC
:1013F0005A834983363009F097CE8AE892E09A837F
:101400008983A981BA816D917D918D919D91BA83D6
:10141000A983EEA1FFA1C190D190E190F190FFA32B
:10142000EEA39B01AC010E9426104B015C01A701B9
:101430009601C701B6010E9426109B01AC01C501AF
:10144000B4010E94400E0E949910E981FA813497FC
:10145000608371838283938329813A814B855C8584
:101460002417350771F6BAE6EB2EB1E0FB2EFA82AF
:10147000E982AD89BE896D917D918D919D91BE8BE3
:10148000AD8B20E030E0A9010E94400E0E94230FA6
:10149000E981FA816193FA83E9832D893E892A5093
:1014A000334039F78AE291E09A8389830FE110E0B3
:1014B000A9E0DA2E99249A94D7016D917D016A31C1
:1014C0000CF415C169E1062E000C770B880B990B03
:1014D000F3E0660F771F881F991FFA95D1F729E16E
:1014E00030E040E050E00E94FE0DF701319720838C
:1014F000C901E981FA812081318121503109281700
:1015000039070CF4F8C03183208329813A812E5F9A
:101510003F4F3A8329830190F081E02DEE0FFF1FAA
:10152000E050FF4F20813181702F7770C801E3E0D8
:1015300096958795EA95E1F7682F4091950350912C
:101540008E03552309F4EAC0841708F064C0D89EBE
:101550003001D99E700C1124212C312C21012394AF
:10156000072E04C0220C331C441C551C0A94D2F7CD
:10157000A22CC22CC09447E050E0471B5109212CFB
:10158000312C2101239404C0220C331C441C551C13
:101590004A95D2F7B22C722D709550E040E02901A7
:1015A00055249A01E0919603F0919703E60DF71DFB
:1015B0003090900380908F03D201042E02C0B59525
:1015C000A7950A94E2F7A0FF9BC0332021F027E003
:1015D00030E0241B350BE20FF31F20813A2D8110E0
:1015E0003B2D232B20834F5F5F4F48305105C9F6B9
:1015F0002091960330919703620E731ED3011896C3
:101600009C9220919E03222331F020919503621732
:1016100010F40E949B040150110908F04DCF0E9464
:1016200059039A838983019709F041C0809126016B
:1016300090912701892BD9F52FB7F89480911E013D
:1016400090911F01A0912001B09121012FBF4091E5
:101650002201509123016091240170912501841B86
:10166000950BA60BB70BC397A105B10500F18091AF
:101670002801909129018230910509F431C10CF0C3
:10168000B2C0019709F4F0C02FB7F89480911E0101
:1016900090911F01A0912001B09121012FBF809353
:1016A000220190932301A0932401B0932501498145
:1016B0005A8150932701409326010E945903892B98
:1016C00071F480912801909129018230910509F4EB
:1016D000E9C10CF07BC18130910509F414C280E0AE
:1016E00090E0892B09F44CCC0E94000049CC67FFA4
:1016F000EACE60E0E8CEA981BA818D939C9305CFB4
:10170000332021F027E030E0241B350BE20FF31FDC
:1017100020813C2D8110372F232364CF841708F0BC
:101720007ACFC22E40918F034423D1F02295422FCD
:1017300050E09A0135952795359527952373440FE9
:10174000551F440F551F4C7C422B242F30E0A9011C
:10175000559547954575220F331F2A7AC42EC22A04
:10176000D89E3001D99E700C11244091960350915F
:101770009703460D571DE72FF0E0209190035F017E
:10178000222329F027E0A22EB12CAE1ABF0A4A0D5F
:101790005B1DDA01CC922091960330919703D3011F
:1017A000A20FB31F18964C911897209190032223F3
:1017B00099F027E030E02E1B3F0B412C512C3201D9
:1017C000439404C0440C551C661C771C2A95D2F720
:1017D000442A18964C9215CF4424439401C0440CDB
:1017E0007A95EAF7F5CF8330910509F4B6C00497EE
:1017F00009F04ACF29813A813093290120932801A9
:1018000081E00E94DA05109201011092000180E847
:1018100090E0909303018093020180EC90E090931C
:1018200005018093040180EE90E09093070180937E
:10183000060180EF90E0909309018093080188EF02
:1018400090E090930B0180930A018CEF90E09093CD
:101850000D0180930C018EEF90E090930F01809327
:101860000E018FEF90E074C002E010E010932901A8
:101870000093280182E00E94DA0510920101109283
:10188000000180E890E0909303018093020180E4DE
:1018900090E0909305018093040180E290E09093A2
:1018A00007018093060180E190E090930901809305
:1018B000080188E090E090930B0180930A0184E096
:1018C00090E090930D0180930C0110930F01009311
:1018D0000E01E981FA81F0931101E0931001D4CE59
:1018E00083E090E090932901809328010E94DA051B
:1018F000109201011092000180E890E090930301A2
:101900008093020180EC90E09093050180930401A4
:1019100080EA90E0909307018093060180E990E0CF
:10192000909309018093080188E890E090930B015F
:1019300080930A0184E890E090930D0180930C015C
:1019400082E890E090930F0180930E0181E890E08F
:10195000909311018093100197CE84E090E09093D2
:101960002901809328010E94DA051092010110924A
:10197000000180E890E0909303018093020180ECE5
:1019800090E0909305018093040180EA90E09093A9
:1019900007018093060180ED90E090930901809308
:1019A000080188EE90E090930B0180930A0184EF88
:1019B00090E090930D0180930C018AEF90E090935A
:1019C0000F0180930E018DEF90E0C2CF833091051F
:1019D000C1F1049709F083CE109201011092000129
:1019E00080E890E0909303018093020180EC90E006
:1019F000909305018093040180EE90E0909307019D
:101A00008093060180EF90E0909309018093080194
:101A100088EF90E090930B0180930A018CEF90E0A7
:101A200090930D0180930C018EEF90E090930F0145
:101A300080930E018FEF90E090931101809310013D
:101A40004ECE109201011092000180E890E0909338
:101A500003018093020180EC90E090930501809354
:101A6000040180EA90E0909307018093060180EDE5
:101A700090E0909309018093080188EE90E09093A4
:101A80000B0180930A0184EF90E090930D01809305
:101A90000C018AEF90E090930F0180930E018DEF7F
:101AA00090E0CACF109201011092000180E890E00E
:101AB000909303018093020180EC90E090930501E4
:101AC0008093040180EA90E09093070180930601DF
:101AD00080E990E0909309018093080188E890E004
:101AE00090930B0180930A0184E890E090930D019C
:101AF00080930C0182E890E090930F0180930E0197
:101B000081E890E099CF109201011092000120E845
:101B100030E0309303012093020120E430E0309361
:101B200005012093040120E230E030930701209367
:101B3000060120E130E0309309012093080128E0FC
:101B400030E030930B0120930A0124E030E0309321
:101B50000D0120930C0122E030E030930F0120931F
:101B60000E016ACFECE8F3E0158216828AE08783E3
:101B700081E0808794E09187828B23E030E031839D
:101B80002083828313821482089580919403882392
:101B900099F09FB7F89480911D01882319F0815026
:101BA00080931D0180911D01811105C08CB58F7B33
:101BB0008CBD10928B039FBF8091960390919703E9
:101BC0000E94CB1180919803909199030C94CB11B2
:101BD000F999FECF92BD81BDF89A992780B50895F5
:101BE000262FF999FECF1FBA92BD81BD20BD0FB639
:101BF000F894FA9AF99A0FBE01960895052E97FB6C
:101C00001EF400940E94150E57FD07D00E941D0E71
:101C100007FC03D04EF40C94150E5095409530956A
:101C200021953F4F4F4F5F4F089590958095709548
:101C300061957F4F8F4F9F4F0895A1E21A2EAA1BE7
:101C4000BB1BFD010DC0AA1FBB1FEE1FFF1FA2176C
:101C5000B307E407F50720F0A21BB30BE40BF50B69
:101C6000661F771F881F991F1A9469F760957095F2
:101C7000809590959B01AC01BD01CF01089550580E
:101C8000BB27AA270E94570E0C94D80F0E949F0FC3
:101C900038F00E94A60F20F039F49F3F19F426F483
:101CA0000C949C0F0EF4E095E7FB0C94960FE92F33
:101CB0000E94FD0F58F3BA17620773078407950750
:101CC00020F079F4A6F50C941F100EF4E0950B2E7D
:101CD000BA2FA02D0B01B90190010C01CA01A0017E
:101CE0001124FF27591B99F0593F50F4503E68F1D9
:101CF0001A16F040A22F232F342F4427585FF3CF1A
:101D0000469537952795A795F0405395C9F77EF4EA
:101D10001F16BA0B620B730B840BBAF09150A1F033
:101D2000FF0FBB1F661F771F881FC2F70EC0BA0FB9
:101D3000621F731F841F48F4879577956795B79541
:101D4000F7959E3F08F0B0CF9395880F08F099273C
:101D5000EE0F9795879508950E94AF0FE3950C9429
:101D6000E90F0E94C50E0C94D80F0E94A60F58F0E0
:101D70000E949F0F40F029F45F3F29F00C94960FCA
:101D800051110C9420100C949C0F0E94FD0F68F3CD
:101D90009923B1F3552391F3951B550BBB27AA2724
:101DA00062177307840738F09F5F5F4F220F331F5E
:101DB000441FAA1FA9F335D00E2E3AF0E0E832D026
:101DC00091505040E695001CCAF72BD0FE2F29D029
:101DD000660F771F881FBB1F261737074807AB07FB
:101DE000B0E809F0BB0B802DBF01FF2793585F4F70
:101DF0003AF09E3F510578F00C94960F0C94201009
:101E00005F3FE4F3983ED4F3869577956795B79551
:101E1000F7959F5FC9F7880F911D9695879597F95C
:101E20000895E1E0660F771F881FBB1F62177307D5
:101E30008407BA0720F0621B730B840BBA0BEE1FEA
:101E400088F7E09508950E942A0F6894B1110C94C8
:101E5000201008950E94051088F09F5798F0B92F20
:101E60009927B751B0F0E1F0660F771F881F991FCF
:101E70001AF0BA95C9F714C0B13091F00E941F1042
:101E8000B1E008950C941F10672F782F8827B85F52
:101E900039F0B93FCCF3869577956795B395D9F727
:101EA0003EF490958095709561957F4F8F4F9F4F31
:101EB0000895E89409C097FB3EF49095809570953D
:101EC00061957F4F8F4F9F4F9923A9F0F92F96E986
:101ED000BB279395F695879577956795B795F111FB
:101EE000F8CFFAF4BB0F11F460FF1BC06F5F7F4F98
:101EF0008F4F9F4F16C0882311F096E911C07723AA
:101F000021F09EE8872F762F05C0662371F096E8B2
:101F1000862F70E060E02AF09A95660F771F881F81
:101F2000DAF7880F9695879597F9089597F99F673F
:101F300080E870E060E008959FEF80EC0895002451
:101F40000A941616170618060906089500240A941E
:101F5000121613061406050608950C949C0F0E9491
:101F60000510D8F3E894E0E0BB279F57F0F02AED86
:101F70003FE049EC06C0EE0FBB0F661F771F881FBE
:101F800028F0B23A62077307840728F0B25A620B4E
:101F9000730B840BE3959A9572F7803830F49A9519
:101FA000BB0F661F771F881FD2F790480C94DB1079
:101FB000092E0394000C11F4882352F0BB0F40F457
:101FC000BF2B11F460FF04C06F5F7F4F8F4F9F4F97
:101FD0000895EF93E0FF07C0A2EA2AED3FE049EC45
:101FE0005FEB0E94570E0E94D80F0F90039401FCE4
:101FF0009058E8E6F0E00C94EE1057FD9058440F2E
:10200000551F59F05F3F71F04795880F97FB991F57
:1020100061F09F3F79F08795089512161306140614
:10202000551FF2CF4695F1DF08C0161617061806A1
:10203000991FF1CF86957105610508940895E8947C
:10204000BB2766277727CB0197F908950E9439109F
:102050000C94D80F0E949F0F38F00E94A60F20F01A
:10206000952311F00C94960F0C949C0F11240C9452
:1020700020100E94FD0F70F3959FC1F3950F50E063
:10208000551F629FF001729FBB27F00DB11D639F2A
:10209000AA27F00DB11DAA1F649F6627B00DA11DD0
:1020A000661F829F2227B00DA11D621F739FB00D76
:1020B000A11D621F839FA00D611D221F749F3327E6
:1020C000A00D611D231F849F600D211D822F762F7F
:1020D0006A2F11249F5750409AF0F1F088234AF05C
:1020E000EE0FFF1FBB1F661F771F881F91505040C8
:1020F000A9F79E3F510580F00C94960F0C94201088
:102100005F3FE4F3983ED4F3869577956795B7954E
:10211000F795E7959F5FC1F7FE2B880F911D969568
:10212000879597F9089519F416F40C949C0F0C9464
:10213000D9100E940510B8F39923C9F3B6F39F573D
:10214000550B87FF0E94E7100024A0E640EA9001AB
:1021500080585695979528F4805C660F771F881FE6
:1021600020F026173707480730F4621B730B840BE7
:10217000202931294A2BA69517940794202531252B
:102180004A2758F7660F771F881F20F02617370752
:10219000480730F4620B730B840B200D311D411D79
:1021A000A09581F7B901842F9158880F969587954E
:1021B00008959F3F31F0915020F48795779567956A
:1021C000B795880F911D9695879597F90895915029
:1021D0005040660F771F881FD2F708959F938F9303
:1021E0007F936F93FF93EF939B01AC010E942610A6
:1021F000EF91FF910E9402112F913F914F915F91BA
:102200000C942610DF93CF931F930F93FF92EF92BE
:10221000DF927B018C01689406C0DA2EEF010E94E8
:102220003910FE01E894A59125913591459155917C
:10223000A6F3EF010E94570EFE019701A801DA9460
:1022400069F7DF90EF90FF900F911F91CF91DF9191
:102250000895EE0FFF1F0590F491E02D09940F9360
:102260001F93CF93DF938230910510F482E090E0CA
:10227000E091AB03F091AC0330E020E0B0E0A0E0EF
:10228000309799F42115310509F44AC0281B390B00
:1022900024303105D8F58A819B816115710589F15A
:1022A000FB0193838283FE0111C040815181028131
:1022B000138148175907E0F04817590799F4109708
:1022C00061F012960C93129713961C933296CF01DD
:1022D000DF91CF911F910F9108950093AB0310935D
:1022E000AC03F4CF2115310551F04217530738F0F4
:1022F000A901DB019A01BD01DF01F801C1CFEF01A6
:10230000F9CF9093AC038093AB03CDCFFE01E20FE6
:10231000F31F819391932250310939832883D7CFBA
:102320002091A9033091AA03232B41F42091140199
:10233000309115013093AA032093A9032091120133
:10234000309113012115310541F42DB73EB740916D
:10235000160150911701241B350BE091A903F09150
:10236000AA03E217F307A0F42E1B3F0B2817390727
:1023700078F0AC014E5F5F4F2417350748F04E0FE1
:102380005F1F5093AA034093A903819391939FCF1A
:10239000F0E0E0E09CCFCF93DF930097E9F0FC0101
:1023A000329713821282A091AB03B091AC03ED017E
:1023B00030E020E01097A1F420813181820F931F3B
:1023C0002091A9033091AA032817390709F061C0A9
:1023D000F093AA03E093A903DF91CF910895EA0156
:1023E000CE17DF07E8F54A815B819E014115510553
:1023F000B1F7E901FB83EA8349915991C40FD51FD5
:10240000EC17FD0761F4808191810296840F951F7E
:10241000E90199838883828193819B838A83F0E099
:10242000E0E012968D919C9113970097B9F52D914C
:102430003C911197CD010296820F931F2091A90321
:102440003091AA032817390739F6309751F51092C1
:10245000AC031092AB03B093AA03A093A903BCCF23
:10246000D383C28340815181840F951FC817D90738
:1024700061F44E5F5F4F88819981480F591F5183E6
:1024800040838A819B81938382832115310509F0E2
:10249000B0CFF093AC03E093AB039ECFFD01DC0122
:1024A000C0CF13821282D7CFDC0101C06D9341509F
:1024B0005040E0F7089513E0C5E0D3E004C0FE010A
:1024C0000E9429112196C630D107C9F7F894FFCF91
:1024D00000008000C000E000F000F800FC00FE00FA
:0824E000FF000000AD038000C5
:00000001FF
